{
  "_format": "hh-sol-artifact-1",
  "contractName": "DXdaoLiquidityMiningRelayer",
  "sourceName": "contracts/DXdaoLiquidityMiningRelayer.sol",
  "abi": [
    {
      "anonymous": false,
      "inputs": [
        {
          "indexed": true,
          "internalType": "address",
          "name": "previousOwner",
          "type": "address"
        },
        {
          "indexed": true,
          "internalType": "address",
          "name": "newOwner",
          "type": "address"
        }
      ],
      "name": "OwnershipTransferred",
      "type": "event"
    },
    {
      "inputs": [
        {
          "internalType": "address",
          "name": "_factoryAddress",
          "type": "address"
        },
        {
          "internalType": "address[]",
          "name": "_rewardTokensAddresses",
          "type": "address[]"
        },
        {
          "internalType": "address",
          "name": "_stakableTokenAddress",
          "type": "address"
        },
        {
          "internalType": "uint256[]",
          "name": "_rewardAmounts",
          "type": "uint256[]"
        },
        {
          "internalType": "uint64",
          "name": "_startingTimestamp",
          "type": "uint64"
        },
        {
          "internalType": "uint64",
          "name": "_endingTimestmp",
          "type": "uint64"
        },
        {
          "internalType": "bool",
          "name": "_locked",
          "type": "bool"
        },
        {
          "internalType": "uint256",
          "name": "_stakingCap",
          "type": "uint256"
        }
      ],
      "name": "createDistribution",
      "outputs": [],
      "stateMutability": "nonpayable",
      "type": "function"
    },
    {
      "inputs": [],
      "name": "owner",
      "outputs": [
        {
          "internalType": "address",
          "name": "",
          "type": "address"
        }
      ],
      "stateMutability": "view",
      "type": "function"
    },
    {
      "inputs": [
        {
          "internalType": "address[]",
          "name": "_tokensAddresses",
          "type": "address[]"
        }
      ],
      "name": "recoverFunds",
      "outputs": [],
      "stateMutability": "nonpayable",
      "type": "function"
    },
    {
      "inputs": [],
      "name": "renounceOwnership",
      "outputs": [],
      "stateMutability": "nonpayable",
      "type": "function"
    },
    {
      "inputs": [
        {
          "internalType": "address",
          "name": "newOwner",
          "type": "address"
        }
      ],
      "name": "transferOwnership",
      "outputs": [],
      "stateMutability": "nonpayable",
      "type": "function"
    }
  ],
  "bytecode": "0x608060405234801561001057600080fd5b50600061001b61006a565b600080546001600160a01b0319166001600160a01b0383169081178255604051929350917f8be0079c531659141344cd1fd0a4f28419497f9722a3daafe3b4186f6b6457e0908290a35061006e565b3390565b610cc48061007d6000396000f3fe608060405234801561001057600080fd5b50600436106100575760003560e01c8063196351f71461005c578063715018a6146100715780638da5cb5b14610079578063903c83df14610097578063f2fde38b146100aa575b600080fd5b61006f61006a366004610803565b6100bd565b005b61006f6103f8565b610081610481565b60405161008e91906109a3565b60405180910390f35b61006f6100a53660046108d7565b610490565b61006f6100b83660046107c4565b61069a565b6100c561075a565b6001600160a01b03166100d6610481565b6001600160a01b0316146101055760405162461bcd60e51b81526004016100fc90610be2565b60405180910390fd5b8785146101245760405162461bcd60e51b81526004016100fc90610b69565b60005b8881101561021c5789898281811061014f57634e487b7160e01b600052603260045260246000fd5b905060200201602081019061016491906107c4565b6001600160a01b031663095ea7b38c89898581811061019357634e487b7160e01b600052603260045260246000fd5b905060200201356040518363ffffffff1660e01b81526004016101b79291906109b7565b602060405180830381600087803b1580156101d157600080fd5b505af11580156101e5573d6000803e3d6000fd5b505050506040513d601f19601f820116820180604052508101906102099190610917565b508061021481610c37565b915050610127565b50604051632c8908ff60e01b81528a906001600160a01b03821690632c8908ff9061025b908d908d908d908d908d908d908d908d908d906004016109d0565b600060405180830381600087803b15801561027557600080fd5b505af1158015610289573d6000803e3d6000fd5b505050506000816001600160a01b0316634487d3df6001846001600160a01b031663d5eeaef76040518163ffffffff1660e01b815260040160206040518083038186803b1580156102d957600080fd5b505afa1580156102ed573d6000803e3d6000fd5b505050506040513d601f19601f820116820180604052508101906103119190610933565b61031b9190610c20565b6040518263ffffffff1660e01b81526004016103379190610c17565b602060405180830381600087803b15801561035157600080fd5b505af1158015610365573d6000803e3d6000fd5b505050506040513d601f19601f8201168201806040525081019061038991906107e7565b60405163f2fde38b60e01b81529091506001600160a01b0382169063f2fde38b906103b89033906004016109a3565b600060405180830381600087803b1580156103d257600080fd5b505af11580156103e6573d6000803e3d6000fd5b50505050505050505050505050505050565b61040061075a565b6001600160a01b0316610411610481565b6001600160a01b0316146104375760405162461bcd60e51b81526004016100fc90610be2565b600080546040516001600160a01b03909116907f8be0079c531659141344cd1fd0a4f28419497f9722a3daafe3b4186f6b6457e0908390a3600080546001600160a01b0319169055565b6000546001600160a01b031690565b600061049a610481565b905060005b828110156106125760008484838181106104c957634e487b7160e01b600052603260045260246000fd5b90506020020160208101906104de91906107c4565b90506000816001600160a01b03166370a08231306040518263ffffffff1660e01b815260040161050e91906109a3565b60206040518083038186803b15801561052657600080fd5b505afa15801561053a573d6000803e3d6000fd5b505050506040513d601f19601f8201168201806040525081019061055e9190610933565b60405163a9059cbb60e01b81529091506001600160a01b0383169063a9059cbb9061058f90879085906004016109b7565b602060405180830381600087803b1580156105a957600080fd5b505af11580156105bd573d6000803e3d6000fd5b505050506040513d601f19601f820116820180604052508101906105e19190610917565b6105fd5760405162461bcd60e51b81526004016100fc90610a74565b5050808061060a90610c37565b91505061049f565b506000816001600160a01b0316620186a047604051610630906109a0565b600060405180830381858888f193505050503d806000811461066e576040519150601f19603f3d011682016040523d82523d6000602084013e610673565b606091505b50509050806106945760405162461bcd60e51b81526004016100fc90610b17565b50505050565b6106a261075a565b6001600160a01b03166106b3610481565b6001600160a01b0316146106d95760405162461bcd60e51b81526004016100fc90610be2565b6001600160a01b0381166106ff5760405162461bcd60e51b81526004016100fc90610ad1565b600080546040516001600160a01b03808516939216917f8be0079c531659141344cd1fd0a4f28419497f9722a3daafe3b4186f6b6457e091a3600080546001600160a01b0319166001600160a01b0392909216919091179055565b3390565b60008083601f84011261076f578182fd5b50813567ffffffffffffffff811115610786578182fd5b60208301915083602080830285010111156107a057600080fd5b9250929050565b803567ffffffffffffffff811681146107bf57600080fd5b919050565b6000602082840312156107d5578081fd5b81356107e081610c68565b9392505050565b6000602082840312156107f8578081fd5b81516107e081610c68565b6000806000806000806000806000806101008b8d031215610822578586fd5b8a3561082d81610c68565b995060208b013567ffffffffffffffff80821115610849578788fd5b6108558e838f0161075e565b909b50995060408d0135915061086a82610c68565b90975060608c0135908082111561087f578788fd5b5061088c8d828e0161075e565b909750955061089f905060808c016107a7565b93506108ad60a08c016107a7565b925060c08b01356108bd81610c80565b8092505060e08b013590509295989b9194979a5092959850565b600080602083850312156108e9578182fd5b823567ffffffffffffffff8111156108ff578283fd5b61090b8582860161075e565b90969095509350505050565b600060208284031215610928578081fd5b81516107e081610c80565b600060208284031215610944578081fd5b5051919050565b6001600160a01b03169052565b81835260006001600160fb1b03831115610970578081fd5b6020830280836020870137939093016020019283525090919050565b15159052565b67ffffffffffffffff169052565b90565b6001600160a01b0391909116815260200190565b6001600160a01b03929092168252602082015260400190565b60e0808252810189905260008a6101008301825b8c811015610a145782356109f781610c68565b6001600160a01b03168252602092830192909101906001016109e4565b50610a22602085018c61094b565b8381036040850152610a35818a8c610958565b92505050610a466060830187610992565b610a536080830186610992565b610a6060a083018561098c565b8260c08301529a9950505050505050505050565b6020808252603b908201527f445864616f4c69717569646974794d696e696e6752656c617965723a20636f7560408201527f6c64206e6f74207265636f76657220455243323020746f6b656e730000000000606082015260800190565b60208082526026908201527f4f776e61626c653a206e6577206f776e657220697320746865207a65726f206160408201526564647265737360d01b606082015260800190565b60208082526032908201527f445864616f4c69717569646974794d696e696e6752656c617965723a20636f756040820152710d8c840dcdee840e4cac6deeccae4408aa8960731b606082015260800190565b60208082526053908201527f445864616f4c69717569646974794d696e696e6752656c617965723a20696e6360408201527f6f6e73697374656e74207265776172642061646472657373657320616e6420616060820152720dadeeadce8e640c2e4e4c2f240d8cadccee8d606b1b608082015260a00190565b6020808252818101527f4f776e61626c653a2063616c6c6572206973206e6f7420746865206f776e6572604082015260600190565b90815260200190565b600082821015610c3257610c32610c52565b500390565b6000600019821415610c4b57610c4b610c52565b5060010190565b634e487b7160e01b600052601160045260246000fd5b6001600160a01b0381168114610c7d57600080fd5b50565b8015158114610c7d57600080fdfea264697066735822122030be00111d04ca9d1e24e29be796e6dff1df710d7159a21da21886f0f0914c7164736f6c63430008000033",
  "linkReferences": {},
  "deployedLinkReferences": {}
}