{
  "_format": "hh-sol-artifact-1",
  "contractName": "DXdaoLiquidityMiningRelayer",
  "sourceName": "contracts/DXdaoLiquidityMiningRelayer.sol",
  "abi": [
    {
      "anonymous": false,
      "inputs": [
        {
          "indexed": true,
          "internalType": "address",
          "name": "previousOwner",
          "type": "address"
        },
        {
          "indexed": true,
          "internalType": "address",
          "name": "newOwner",
          "type": "address"
        }
      ],
      "name": "OwnershipTransferred",
      "type": "event"
    },
    {
      "inputs": [
        {
          "internalType": "address",
          "name": "_factoryAddress",
          "type": "address"
        },
        {
          "internalType": "address[]",
          "name": "_rewardTokensAddresses",
          "type": "address[]"
        },
        {
          "internalType": "address",
          "name": "_stakableTokenAddress",
          "type": "address"
        },
        {
          "internalType": "uint256[]",
          "name": "_rewardAmounts",
          "type": "uint256[]"
        },
        {
          "internalType": "uint64",
          "name": "_startingTimestamp",
          "type": "uint64"
        },
        {
          "internalType": "uint64",
          "name": "_endingTimestmp",
          "type": "uint64"
        },
        {
          "internalType": "bool",
          "name": "_locked",
          "type": "bool"
        },
        {
          "internalType": "uint256",
          "name": "_stakingCap",
          "type": "uint256"
        }
      ],
      "name": "createDistribution",
      "outputs": [],
      "stateMutability": "nonpayable",
      "type": "function"
    },
    {
      "inputs": [],
      "name": "owner",
      "outputs": [
        {
          "internalType": "address",
          "name": "",
          "type": "address"
        }
      ],
      "stateMutability": "view",
      "type": "function"
    },
    {
      "inputs": [],
      "name": "renounceOwnership",
      "outputs": [],
      "stateMutability": "nonpayable",
      "type": "function"
    },
    {
      "inputs": [
        {
          "internalType": "address",
          "name": "newOwner",
          "type": "address"
        }
      ],
      "name": "transferOwnership",
      "outputs": [],
      "stateMutability": "nonpayable",
      "type": "function"
    }
  ],
  "bytecode": "0x608060405234801561001057600080fd5b50600061001b61006a565b600080546001600160a01b0319166001600160a01b0383169081178255604051929350917f8be0079c531659141344cd1fd0a4f28419497f9722a3daafe3b4186f6b6457e0908290a35061006e565b3390565b6107b58061007d6000396000f3fe608060405234801561001057600080fd5b506004361061004c5760003560e01c8063196351f714610051578063715018a6146100665780638da5cb5b1461006e578063f2fde38b1461008c575b600080fd5b61006461005f3660046104c3565b61009f565b005b6100646102c2565b61007661034b565b6040516100839190610608565b60405180910390f35b61006461009a366004610484565b61035a565b6100a761041a565b6001600160a01b03166100b861034b565b6001600160a01b0316146100e75760405162461bcd60e51b81526004016100de90610706565b60405180910390fd5b604051632c8908ff60e01b81528a906001600160a01b03821690632c8908ff90610125908d908d908d908d908d908d908d908d908d9060040161061c565b600060405180830381600087803b15801561013f57600080fd5b505af1158015610153573d6000803e3d6000fd5b505050506000816001600160a01b0316634487d3df6001846001600160a01b031663d5eeaef76040518163ffffffff1660e01b815260040160206040518083038186803b1580156101a357600080fd5b505afa1580156101b7573d6000803e3d6000fd5b505050506040513d601f19601f820116820180604052508101906101db919061059b565b6101e59190610744565b6040518263ffffffff1660e01b8152600401610201919061073b565b602060405180830381600087803b15801561021b57600080fd5b505af115801561022f573d6000803e3d6000fd5b505050506040513d601f19601f8201168201806040525081019061025391906104a7565b60405163f2fde38b60e01b81529091506001600160a01b0382169063f2fde38b90610282903390600401610608565b600060405180830381600087803b15801561029c57600080fd5b505af11580156102b0573d6000803e3d6000fd5b50505050505050505050505050505050565b6102ca61041a565b6001600160a01b03166102db61034b565b6001600160a01b0316146103015760405162461bcd60e51b81526004016100de90610706565b600080546040516001600160a01b03909116907f8be0079c531659141344cd1fd0a4f28419497f9722a3daafe3b4186f6b6457e0908390a3600080546001600160a01b0319169055565b6000546001600160a01b031690565b61036261041a565b6001600160a01b031661037361034b565b6001600160a01b0316146103995760405162461bcd60e51b81526004016100de90610706565b6001600160a01b0381166103bf5760405162461bcd60e51b81526004016100de906106c0565b600080546040516001600160a01b03808516939216917f8be0079c531659141344cd1fd0a4f28419497f9722a3daafe3b4186f6b6457e091a3600080546001600160a01b0319166001600160a01b0392909216919091179055565b3390565b60008083601f84011261042f578182fd5b50813567ffffffffffffffff811115610446578182fd5b602083019150836020808302850101111561046057600080fd5b9250929050565b803567ffffffffffffffff8116811461047f57600080fd5b919050565b600060208284031215610495578081fd5b81356104a081610767565b9392505050565b6000602082840312156104b8578081fd5b81516104a081610767565b6000806000806000806000806000806101008b8d0312156104e2578586fd5b8a356104ed81610767565b995060208b013567ffffffffffffffff80821115610509578788fd5b6105158e838f0161041e565b909b50995060408d0135915061052a82610767565b90975060608c0135908082111561053f578788fd5b5061054c8d828e0161041e565b909750955061055f905060808c01610467565b935061056d60a08c01610467565b925060c08b01358015158114610581578283fd5b8092505060e08b013590509295989b9194979a5092959850565b6000602082840312156105ac578081fd5b5051919050565b6001600160a01b03169052565b81835260006001600160fb1b038311156105d8578081fd5b6020830280836020870137939093016020019283525090919050565b15159052565b67ffffffffffffffff169052565b6001600160a01b0391909116815260200190565b60e0808252810189905260008a6101008301825b8c81101561066057823561064381610767565b6001600160a01b0316825260209283019290910190600101610630565b5061066e602085018c6105b3565b8381036040850152610681818a8c6105c0565b9250505061069260608301876105fa565b61069f60808301866105fa565b6106ac60a08301856105f4565b8260c08301529a9950505050505050505050565b60208082526026908201527f4f776e61626c653a206e6577206f776e657220697320746865207a65726f206160408201526564647265737360d01b606082015260800190565b6020808252818101527f4f776e61626c653a2063616c6c6572206973206e6f7420746865206f776e6572604082015260600190565b90815260200190565b60008282101561076257634e487b7160e01b81526011600452602481fd5b500390565b6001600160a01b038116811461077c57600080fd5b5056fea2646970667358221220fb100672d9ddfd33a217cb27a6b885f291a809580817d8d818aa87dd6f55e0af64736f6c63430008000033",
  "linkReferences": {},
  "deployedLinkReferences": {}
}