{
  "_format": "hh-sol-artifact-1",
  "contractName": "LiquidityMiningRelayer",
  "sourceName": "contracts/SwaprLiquidityMiningRelayer.sol",
  "abi": [
    {
      "anonymous": false,
      "inputs": [
        {
          "indexed": true,
          "internalType": "address",
          "name": "previousOwner",
          "type": "address"
        },
        {
          "indexed": true,
          "internalType": "address",
          "name": "newOwner",
          "type": "address"
        }
      ],
      "name": "OwnershipTransferred",
      "type": "event"
    },
    {
      "inputs": [
        {
          "internalType": "address",
          "name": "_factoryAddress",
          "type": "address"
        },
        {
          "internalType": "address[]",
          "name": "_rewardTokensAddresses",
          "type": "address[]"
        },
        {
          "internalType": "address",
          "name": "_stakableTokenAddress",
          "type": "address"
        },
        {
          "internalType": "uint256[]",
          "name": "_rewardAmounts",
          "type": "uint256[]"
        },
        {
          "internalType": "uint64",
          "name": "_startingTimestamp",
          "type": "uint64"
        },
        {
          "internalType": "uint64",
          "name": "_endingTimestmp",
          "type": "uint64"
        },
        {
          "internalType": "bool",
          "name": "_locked",
          "type": "bool"
        },
        {
          "internalType": "uint256",
          "name": "_stakingCap",
          "type": "uint256"
        }
      ],
      "name": "createDistribution",
      "outputs": [],
      "stateMutability": "nonpayable",
      "type": "function"
    },
    {
      "inputs": [],
      "name": "owner",
      "outputs": [
        {
          "internalType": "address",
          "name": "",
          "type": "address"
        }
      ],
      "stateMutability": "view",
      "type": "function"
    },
    {
      "inputs": [],
      "name": "renounceOwnership",
      "outputs": [],
      "stateMutability": "nonpayable",
      "type": "function"
    },
    {
      "inputs": [
        {
          "internalType": "address",
          "name": "newOwner",
          "type": "address"
        }
      ],
      "name": "transferOwnership",
      "outputs": [],
      "stateMutability": "nonpayable",
      "type": "function"
    }
  ],
  "bytecode": "0x608060405234801561001057600080fd5b50600061001b61006a565b600080546001600160a01b0319166001600160a01b0383169081178255604051929350917f8be0079c531659141344cd1fd0a4f28419497f9722a3daafe3b4186f6b6457e0908290a35061006e565b3390565b6105a28061007d6000396000f3fe608060405234801561001057600080fd5b506004361061004c5760003560e01c8063196351f714610051578063715018a6146100665780638da5cb5b1461006e578063f2fde38b1461008c575b600080fd5b61006461005f36600461031c565b61009f565b005b610064610119565b6100766101ab565b6040516100839190610439565b60405180910390f35b61006461009a3660046102fb565b6101ba565b604051632c8908ff60e01b81526001600160a01b038b1690632c8908ff906100db908c908c908c908c908c908c908c908c908c9060040161044d565b600060405180830381600087803b1580156100f557600080fd5b505af1158015610109573d6000803e3d6000fd5b5050505050505050505050505050565b61012161027a565b6001600160a01b03166101326101ab565b6001600160a01b0316146101615760405162461bcd60e51b815260040161015890610537565b60405180910390fd5b600080546040516001600160a01b03909116907f8be0079c531659141344cd1fd0a4f28419497f9722a3daafe3b4186f6b6457e0908390a3600080546001600160a01b0319169055565b6000546001600160a01b031690565b6101c261027a565b6001600160a01b03166101d36101ab565b6001600160a01b0316146101f95760405162461bcd60e51b815260040161015890610537565b6001600160a01b03811661021f5760405162461bcd60e51b8152600401610158906104f1565b600080546040516001600160a01b03808516939216917f8be0079c531659141344cd1fd0a4f28419497f9722a3daafe3b4186f6b6457e091a3600080546001600160a01b0319166001600160a01b0392909216919091179055565b3390565b80356001600160a01b038116811461029557600080fd5b919050565b60008083601f8401126102ab578182fd5b50813567ffffffffffffffff8111156102c2578182fd5b60208301915083602080830285010111156102dc57600080fd5b9250929050565b803567ffffffffffffffff8116811461029557600080fd5b60006020828403121561030c578081fd5b6103158261027e565b9392505050565b6000806000806000806000806000806101008b8d03121561033b578586fd5b6103448b61027e565b995060208b013567ffffffffffffffff80821115610360578788fd5b61036c8e838f0161029a565b909b50995089915061038060408e0161027e565b985060608d0135915080821115610395578788fd5b506103a28d828e0161029a565b90975095506103b5905060808c016102e3565b93506103c360a08c016102e3565b925060c08b013580151581146103d7578283fd5b8092505060e08b013590509295989b9194979a5092959850565b81835260006001600160fb1b03831115610409578081fd5b6020830280836020870137939093016020019283525090919050565b15159052565b67ffffffffffffffff169052565b6001600160a01b0391909116815260200190565b60e0808252810189905260008a6101008301825b8c81101561048f576001600160a01b0361047a8461027e565b16825260209283019290910190600101610461565b506001600160a01b038b16602085015283810360408501526104b2818a8c6103f1565b925050506104c3606083018761042b565b6104d0608083018661042b565b6104dd60a0830185610425565b8260c08301529a9950505050505050505050565b60208082526026908201527f4f776e61626c653a206e6577206f776e657220697320746865207a65726f206160408201526564647265737360d01b606082015260800190565b6020808252818101527f4f776e61626c653a2063616c6c6572206973206e6f7420746865206f776e657260408201526060019056fea26469706673582212206e281c8cf224a020151f82c2aac88af5efa8af9b6a7914df5b9995f8733b3c2d64736f6c63430008000033",
  "linkReferences": {},
  "deployedLinkReferences": {}
}